{"abi":[{"type":"function","name":"calculateTaskFee","inputs":[{"name":"","type":"tuple","internalType":"struct ITaskMailboxTypes.TaskParams","components":[{"name":"refundCollector","type":"address","internalType":"address"},{"name":"executorOperatorSet","type":"tuple","internalType":"struct OperatorSet","components":[{"name":"avs","type":"address","internalType":"address"},{"name":"id","type":"uint32","internalType":"uint32"}]},{"name":"payload","type":"bytes","internalType":"bytes"}]}],"outputs":[{"name":"","type":"uint96","internalType":"uint96"}],"stateMutability":"view"},{"type":"function","name":"handlePostTaskCreation","inputs":[{"name":"","type":"bytes32","internalType":"bytes32"}],"outputs":[],"stateMutability":"nonpayable"},{"type":"function","name":"handlePostTaskResultSubmission","inputs":[{"name":"","type":"address","internalType":"address"},{"name":"","type":"bytes32","internalType":"bytes32"}],"outputs":[],"stateMutability":"nonpayable"},{"type":"function","name":"validatePreTaskCreation","inputs":[{"name":"","type":"address","internalType":"address"},{"name":"","type":"tuple","internalType":"struct ITaskMailboxTypes.TaskParams","components":[{"name":"refundCollector","type":"address","internalType":"address"},{"name":"executorOperatorSet","type":"tuple","internalType":"struct OperatorSet","components":[{"name":"avs","type":"address","internalType":"address"},{"name":"id","type":"uint32","internalType":"uint32"}]},{"name":"payload","type":"bytes","internalType":"bytes"}]}],"outputs":[],"stateMutability":"view"},{"type":"function","name":"validatePreTaskResultSubmission","inputs":[{"name":"","type":"address","internalType":"address"},{"name":"","type":"bytes32","internalType":"bytes32"},{"name":"","type":"bytes","internalType":"bytes"},{"name":"","type":"bytes","internalType":"bytes"}],"outputs":[],"stateMutability":"view"}],"bytecode":{"object":"0x6080604052348015600e575f5ffd5b506103f38061001c5f395ff3fe608060405234801561000f575f5ffd5b5060043610610055575f3560e01c806309c5c4501461005957806351fe30981461006c578063ba33565d1461007e578063e06cd27e14610092578063e082467e146100c6575b5f5ffd5b61006a6100673660046100d4565b50565b005b61006a61007a366004610292565b5050565b61006a61008c3660046102dd565b50505050565b6100a56100a036600461035b565b505f90565b6040516bffffffffffffffffffffffff909116815260200160405180910390f35b61006a61007a366004610395565b5f602082840312156100e4575f5ffd5b5035919050565b80356001600160a01b0381168114610101575f5ffd5b919050565b634e487b7160e01b5f52604160045260245ffd5b6040516060810167ffffffffffffffff8111828210171561013d5761013d610106565b60405290565b6040805190810167ffffffffffffffff8111828210171561013d5761013d610106565b5f82601f830112610175575f5ffd5b813567ffffffffffffffff81111561018f5761018f610106565b604051601f8201601f19908116603f0116810167ffffffffffffffff811182821017156101be576101be610106565b6040528181528382016020018510156101d5575f5ffd5b816020850160208301375f918101602001919091529392505050565b5f8183036080811215610202575f5ffd5b61020a61011a565b9150610215836100eb565b82526040601f1982011215610228575f5ffd5b50610231610143565b61023d602084016100eb565b8152604083013563ffffffff81168114610255575f5ffd5b602082810191909152820152606082013567ffffffffffffffff81111561027a575f5ffd5b61028684828501610166565b60408301525092915050565b5f5f604083850312156102a3575f5ffd5b6102ac836100eb565b9150602083013567ffffffffffffffff8111156102c7575f5ffd5b6102d3858286016101f1565b9150509250929050565b5f5f5f5f608085870312156102f0575f5ffd5b6102f9856100eb565b935060208501359250604085013567ffffffffffffffff81111561031b575f5ffd5b61032787828801610166565b925050606085013567ffffffffffffffff811115610343575f5ffd5b61034f87828801610166565b91505092959194509250565b5f6020828403121561036b575f5ffd5b813567ffffffffffffffff811115610381575f5ffd5b61038d848285016101f1565b949350505050565b5f5f604083850312156103a6575f5ffd5b6103af836100eb565b94602093909301359350505056fea26469706673582212205246f4f0707b972ebde5dd02c9b34491d09e9674440b0f8e39e77dc8ce8afa4864736f6c634300081b0033","linkReferences":{}},"methodIdentifiers":{"calculateTaskFee((address,(address,uint32),bytes))":"e06cd27e","handlePostTaskCreation(bytes32)":"09c5c450","handlePostTaskResultSubmission(address,bytes32)":"e082467e","validatePreTaskCreation(address,(address,(address,uint32),bytes))":"51fe3098","validatePreTaskResultSubmission(address,bytes32,bytes,bytes)":"ba33565d"},"id":4}