{"abi":[{"type":"constructor","inputs":[{"name":"_avs","type":"address","internalType":"address"},{"name":"_allocationManager","type":"address","internalType":"contract IAllocationManager"},{"name":"_keyRegistrar","type":"address","internalType":"contract IKeyRegistrar"}],"stateMutability":"nonpayable"},{"type":"function","name":"allocationManager","inputs":[],"outputs":[{"name":"","type":"address","internalType":"contract IAllocationManager"}],"stateMutability":"view"},{"type":"function","name":"deregisterOperator","inputs":[{"name":"operator","type":"address","internalType":"address"},{"name":"","type":"address","internalType":"address"},{"name":"operatorSetIds","type":"uint32[]","internalType":"uint32[]"}],"outputs":[],"stateMutability":"nonpayable"},{"type":"function","name":"getAVS","inputs":[],"outputs":[{"name":"","type":"address","internalType":"address"}],"stateMutability":"view"},{"type":"function","name":"keyRegistrar","inputs":[],"outputs":[{"name":"","type":"address","internalType":"contract IKeyRegistrar"}],"stateMutability":"view"},{"type":"function","name":"registerOperator","inputs":[{"name":"operator","type":"address","internalType":"address"},{"name":"","type":"address","internalType":"address"},{"name":"operatorSetIds","type":"uint32[]","internalType":"uint32[]"},{"name":"data","type":"bytes","internalType":"bytes"}],"outputs":[],"stateMutability":"nonpayable"},{"type":"function","name":"supportsAVS","inputs":[{"name":"_avs","type":"address","internalType":"address"}],"outputs":[{"name":"","type":"bool","internalType":"bool"}],"stateMutability":"view"},{"type":"event","name":"Initialized","inputs":[{"name":"version","type":"uint8","indexed":false,"internalType":"uint8"}],"anonymous":false},{"type":"event","name":"OperatorDeregistered","inputs":[{"name":"operator","type":"address","indexed":true,"internalType":"address"},{"name":"operatorSetIds","type":"uint32[]","indexed":false,"internalType":"uint32[]"}],"anonymous":false},{"type":"event","name":"OperatorRegistered","inputs":[{"name":"operator","type":"address","indexed":true,"internalType":"address"},{"name":"operatorSetIds","type":"uint32[]","indexed":false,"internalType":"uint32[]"}],"anonymous":false},{"type":"error","name":"KeyNotRegistered","inputs":[]},{"type":"error","name":"NotAllocationManager","inputs":[]}],"bytecode":{"object":"0x60e060405234801561000f575f5ffd5b5060405161086238038061086283398101604081905261002e9161012a565b6001600160a01b0380841660805280831660a052811660c05261004f610057565b505050610174565b5f54610100900460ff16156100c25760405162461bcd60e51b815260206004820152602760248201527f496e697469616c697a61626c653a20636f6e747261637420697320696e697469604482015266616c697a696e6760c81b606482015260840160405180910390fd5b5f5460ff90811614610111575f805460ff191660ff9081179091556040519081527f7f26b83ff96e1f2b6a682f133852f6798a09c465da95921460cefb38474024989060200160405180910390a15b565b6001600160a01b0381168114610127575f5ffd5b50565b5f5f5f6060848603121561013c575f5ffd5b835161014781610113565b602085015190935061015881610113565b604085015190925061016981610113565b809150509250925092565b60805160a05160c0516106a36101bf5f395f8181607e015261035a01525f818161012501528181610178015261020a01525f818160cd0152818161014901526102bc01526106a35ff3fe608060405234801561000f575f5ffd5b5060043610610060575f3560e01c8063303ca956146100645780633ec45c7e14610079578063b5265787146100bd578063c63fd5021461010d578063ca8aa7c714610120578063f62b9a5414610147575b5f5ffd5b61007761007236600461045c565b61016d565b005b6100a07f000000000000000000000000000000000000000000000000000000000000000081565b6040516001600160a01b0390911681526020015b60405180910390f35b6100fd6100cb3660046104b9565b7f00000000000000000000000000000000000000000000000000000000000000006001600160a01b0390811691161490565b60405190151581526020016100b4565b61007761011b3660046104d9565b6101ff565b6100a07f000000000000000000000000000000000000000000000000000000000000000081565b7f00000000000000000000000000000000000000000000000000000000000000006100a0565b336001600160a01b037f000000000000000000000000000000000000000000000000000000000000000016146101b6576040516335e5ec5560e21b815260040160405180910390fd5b836001600160a01b03167ff8aaad08ee23b49c9bb44e3bca6c7efa43442fc4281245a7f2475aa2632718d183836040516101f19291906105aa565b60405180910390a250505050565b336001600160a01b037f00000000000000000000000000000000000000000000000000000000000000001614610248576040516335e5ec5560e21b815260040160405180910390fd5b61025386858561029e565b856001600160a01b03167f9efdc3d07eb312e06bf36ea85db02aec96817d7c7421f919027b240eaf34035d858560405161028e9291906105aa565b60405180910390a2505050505050565b5f5b63ffffffff81168211156103f3575f60405180604001604052807f00000000000000000000000000000000000000000000000000000000000000006001600160a01b0316815260200185858563ffffffff16818110610301576103016105f1565b90506020020160208101906103169190610605565b63ffffffff90811690915260405163bd30a0b960e01b815282516001600160a01b0390811660048301526020840151909216602482015287821660448201529192507f0000000000000000000000000000000000000000000000000000000000000000169063bd30a0b990606401602060405180830381865afa15801561039f573d5f5f3e3d5ffd5b505050506040513d601f19601f820116820180604052508101906103c3919061061e565b6103e05760405163815589fb60e01b815260040160405180910390fd5b50806103eb8161063d565b9150506102a0565b50505050565b80356001600160a01b038116811461040f575f5ffd5b919050565b5f5f83601f840112610424575f5ffd5b50813567ffffffffffffffff81111561043b575f5ffd5b6020830191508360208260051b8501011115610455575f5ffd5b9250929050565b5f5f5f5f6060858703121561046f575f5ffd5b610478856103f9565b9350610486602086016103f9565b9250604085013567ffffffffffffffff8111156104a1575f5ffd5b6104ad87828801610414565b95989497509550505050565b5f602082840312156104c9575f5ffd5b6104d2826103f9565b9392505050565b5f5f5f5f5f5f608087890312156104ee575f5ffd5b6104f7876103f9565b9550610505602088016103f9565b9450604087013567ffffffffffffffff811115610520575f5ffd5b61052c89828a01610414565b909550935050606087013567ffffffffffffffff81111561054b575f5ffd5b8701601f8101891361055b575f5ffd5b803567ffffffffffffffff811115610571575f5ffd5b896020828401011115610582575f5ffd5b60208201935080925050509295509295509295565b803563ffffffff8116811461040f575f5ffd5b602080825281018290525f8360408301825b858110156105e75763ffffffff6105d284610597565b168252602092830192909101906001016105bc565b5095945050505050565b634e487b7160e01b5f52603260045260245ffd5b5f60208284031215610615575f5ffd5b6104d282610597565b5f6020828403121561062e575f5ffd5b815180151581146104d2575f5ffd5b5f63ffffffff821663ffffffff810361066457634e487b7160e01b5f52601160045260245ffd5b6001019291505056fea2646970667358221220ffb3efc9f8497e60ca78f6a785ee37b3ef3ac3e8fb61880269f049e6c1c2d08764736f6c634300081b0033","linkReferences":{}},"methodIdentifiers":{"allocationManager()":"ca8aa7c7","deregisterOperator(address,address,uint32[])":"303ca956","getAVS()":"f62b9a54","keyRegistrar()":"3ec45c7e","registerOperator(address,address,uint32[],bytes)":"c63fd502","supportsAVS(address)":"b5265787"},"id":37}