{"abi":[{"type":"constructor","inputs":[{"name":"_avs","type":"address","internalType":"address"},{"name":"_allocationManager","type":"address","internalType":"contract IAllocationManager"},{"name":"_keyRegistrar","type":"address","internalType":"contract IKeyRegistrar"}],"stateMutability":"nonpayable"},{"type":"function","name":"allocationManager","inputs":[],"outputs":[{"name":"","type":"address","internalType":"contract IAllocationManager"}],"stateMutability":"view"},{"type":"function","name":"avsConfig","inputs":[],"outputs":[{"name":"aggregatorOperatorSetId","type":"uint32","internalType":"uint32"}],"stateMutability":"view"},{"type":"function","name":"deregisterOperator","inputs":[{"name":"operator","type":"address","internalType":"address"},{"name":"","type":"address","internalType":"address"},{"name":"operatorSetIds","type":"uint32[]","internalType":"uint32[]"}],"outputs":[],"stateMutability":"nonpayable"},{"type":"function","name":"getAVS","inputs":[],"outputs":[{"name":"","type":"address","internalType":"address"}],"stateMutability":"view"},{"type":"function","name":"getAvsConfig","inputs":[],"outputs":[{"name":"","type":"tuple","internalType":"struct ITaskAVSRegistrarBaseTypes.AvsConfig","components":[{"name":"aggregatorOperatorSetId","type":"uint32","internalType":"uint32"},{"name":"executorOperatorSetIds","type":"uint32[]","internalType":"uint32[]"}]}],"stateMutability":"view"},{"type":"function","name":"getOperatorSocket","inputs":[{"name":"operator","type":"address","internalType":"address"}],"outputs":[{"name":"","type":"string","internalType":"string"}],"stateMutability":"view"},{"type":"function","name":"initialize","inputs":[{"name":"_owner","type":"address","internalType":"address"},{"name":"_initialConfig","type":"tuple","internalType":"struct ITaskAVSRegistrarBaseTypes.AvsConfig","components":[{"name":"aggregatorOperatorSetId","type":"uint32","internalType":"uint32"},{"name":"executorOperatorSetIds","type":"uint32[]","internalType":"uint32[]"}]}],"outputs":[],"stateMutability":"nonpayable"},{"type":"function","name":"keyRegistrar","inputs":[],"outputs":[{"name":"","type":"address","internalType":"contract IKeyRegistrar"}],"stateMutability":"view"},{"type":"function","name":"owner","inputs":[],"outputs":[{"name":"","type":"address","internalType":"address"}],"stateMutability":"view"},{"type":"function","name":"registerOperator","inputs":[{"name":"operator","type":"address","internalType":"address"},{"name":"","type":"address","internalType":"address"},{"name":"operatorSetIds","type":"uint32[]","internalType":"uint32[]"},{"name":"data","type":"bytes","internalType":"bytes"}],"outputs":[],"stateMutability":"nonpayable"},{"type":"function","name":"renounceOwnership","inputs":[],"outputs":[],"stateMutability":"nonpayable"},{"type":"function","name":"setAvsConfig","inputs":[{"name":"config","type":"tuple","internalType":"struct ITaskAVSRegistrarBaseTypes.AvsConfig","components":[{"name":"aggregatorOperatorSetId","type":"uint32","internalType":"uint32"},{"name":"executorOperatorSetIds","type":"uint32[]","internalType":"uint32[]"}]}],"outputs":[],"stateMutability":"nonpayable"},{"type":"function","name":"supportsAVS","inputs":[{"name":"_avs","type":"address","internalType":"address"}],"outputs":[{"name":"","type":"bool","internalType":"bool"}],"stateMutability":"view"},{"type":"function","name":"transferOwnership","inputs":[{"name":"newOwner","type":"address","internalType":"address"}],"outputs":[],"stateMutability":"nonpayable"},{"type":"function","name":"updateSocket","inputs":[{"name":"operator","type":"address","internalType":"address"},{"name":"socket","type":"string","internalType":"string"}],"outputs":[],"stateMutability":"nonpayable"},{"type":"event","name":"AvsConfigSet","inputs":[{"name":"aggregatorOperatorSetId","type":"uint32","indexed":false,"internalType":"uint32"},{"name":"executorOperatorSetIds","type":"uint32[]","indexed":false,"internalType":"uint32[]"}],"anonymous":false},{"type":"event","name":"Initialized","inputs":[{"name":"version","type":"uint8","indexed":false,"internalType":"uint8"}],"anonymous":false},{"type":"event","name":"OperatorDeregistered","inputs":[{"name":"operator","type":"address","indexed":true,"internalType":"address"},{"name":"operatorSetIds","type":"uint32[]","indexed":false,"internalType":"uint32[]"}],"anonymous":false},{"type":"event","name":"OperatorRegistered","inputs":[{"name":"operator","type":"address","indexed":true,"internalType":"address"},{"name":"operatorSetIds","type":"uint32[]","indexed":false,"internalType":"uint32[]"}],"anonymous":false},{"type":"event","name":"OperatorSocketSet","inputs":[{"name":"operator","type":"address","indexed":true,"internalType":"address"},{"name":"socket","type":"string","indexed":false,"internalType":"string"}],"anonymous":false},{"type":"event","name":"OwnershipTransferred","inputs":[{"name":"previousOwner","type":"address","indexed":true,"internalType":"address"},{"name":"newOwner","type":"address","indexed":true,"internalType":"address"}],"anonymous":false},{"type":"error","name":"CallerNotOperator","inputs":[]},{"type":"error","name":"DataLengthMismatch","inputs":[]},{"type":"error","name":"DuplicateExecutorOperatorSetId","inputs":[]},{"type":"error","name":"ExecutorOperatorSetIdsEmpty","inputs":[]},{"type":"error","name":"InvalidAggregatorOperatorSetId","inputs":[]},{"type":"error","name":"KeyNotRegistered","inputs":[]},{"type":"error","name":"NotAllocationManager","inputs":[]}],"bytecode":{"object":"0x60e060405234801561000f575f5ffd5b5060405161164a38038061164a83398101604081905261002e9161014a565b6001600160a01b0380841660805280831660a052811660c052828282828282828282610058610077565b50505050505061006c61007760201b60201c565b505050505050610194565b5f54610100900460ff16156100e25760405162461bcd60e51b815260206004820152602760248201527f496e697469616c697a61626c653a20636f6e747261637420697320696e697469604482015266616c697a696e6760c81b606482015260840160405180910390fd5b5f5460ff90811614610131575f805460ff191660ff9081179091556040519081527f7f26b83ff96e1f2b6a682f133852f6798a09c465da95921460cefb38474024989060200160405180910390a15b565b6001600160a01b0381168114610147575f5ffd5b50565b5f5f5f6060848603121561015c575f5ffd5b835161016781610133565b602085015190935061017881610133565b604085015190925061018981610133565b809150509250925092565b60805160a05160c0516114696101e15f395f818161010e015261095001525f818161024e015281816102c7015261061001525f81816101f60152818161029801526108b201526114695ff3fe608060405234801561000f575f5ffd5b50600436106100f0575f3560e01c80638481931d11610093578063ca8aa7c711610063578063ca8aa7c714610249578063d1f2e81d14610270578063f2fde38b14610283578063f62b9a5414610296575f5ffd5b80638481931d146101b55780638da5cb5b146101d5578063b5265787146101e6578063c63fd50214610236575f5ffd5b80636591666a116100ce5780636591666a14610162578063715018a61461017557806371aed1221461017d5780637e77780314610190575f5ffd5b8063303ca956146100f45780633ec45c7e1461010957806341f548f01461014d575b5f5ffd5b610107610102366004610d05565b6102bc565b005b6101307f000000000000000000000000000000000000000000000000000000000000000081565b6040516001600160a01b0390911681526020015b60405180910390f35b61015561034e565b6040516101449190610d61565b610107610170366004610e9e565b6103fe565b610107610435565b61010761018b366004610fc5565b610448565b60c9546101a09063ffffffff1681565b60405163ffffffff9091168152602001610144565b6101c86101c3366004611005565b61055c565b6040516101449190611025565b6033546001600160a01b0316610130565b6102266101f4366004611005565b7f00000000000000000000000000000000000000000000000000000000000000006001600160a01b0390811691161490565b6040519015158152602001610144565b61010761024436600461105a565b610605565b6101307f000000000000000000000000000000000000000000000000000000000000000081565b61010761027e366004611115565b6106b1565b610107610291366004611005565b6106c5565b7f0000000000000000000000000000000000000000000000000000000000000000610130565b336001600160a01b037f00000000000000000000000000000000000000000000000000000000000000001614610305576040516335e5ec5560e21b815260040160405180910390fd5b836001600160a01b03167ff8aaad08ee23b49c9bb44e3bca6c7efa43442fc4281245a7f2475aa2632718d1838360405161034092919061114e565b60405180910390a250505050565b604080518082019091525f81526060602082015260408051808201825260c9805463ffffffff16825260ca805484516020828102820181019096528181529394929383860193909291908301828280156103f057602002820191905f5260205f20905f905b82829054906101000a900463ffffffff1663ffffffff16815260200190600401906020826003010492830192600103820291508084116103b35790505b505050505081525050905090565b336001600160a01b038316146104275760405163a5523ee560e01b815260040160405180910390fd5b610431828261073b565b5050565b61043d6107a2565b6104465f6107fc565b565b5f54610100900460ff161580801561046657505f54600160ff909116105b8061047f5750303b15801561047f57505f5460ff166001145b6104e75760405162461bcd60e51b815260206004820152602e60248201527f496e697469616c697a61626c653a20636f6e747261637420697320616c72656160448201526d191e481a5b9a5d1a585b1a5e995960921b60648201526084015b60405180910390fd5b5f805460ff191660011790558015610508575f805461ff0019166101001790555b610512838361084d565b8015610557575f805461ff0019169055604051600181527f7f26b83ff96e1f2b6a682f133852f6798a09c465da95921460cefb38474024989060200160405180910390a15b505050565b6001600160a01b0381165f9081526097602052604090208054606091906105829061118b565b80601f01602080910402602001604051908101604052809291908181526020018280546105ae9061118b565b80156105f95780601f106105d0576101008083540402835291602001916105f9565b820191905f5260205f20905b8154815290600101906020018083116105dc57829003601f168201915b50505050509050919050565b336001600160a01b037f0000000000000000000000000000000000000000000000000000000000000000161461064e576040516335e5ec5560e21b815260040160405180910390fd5b610659868585610894565b61066686858585856109ef565b856001600160a01b03167f9efdc3d07eb312e06bf36ea85db02aec96817d7c7421f919027b240eaf34035d85856040516106a192919061114e565b60405180910390a2505050505050565b6106b96107a2565b6106c281610a10565b50565b6106cd6107a2565b6001600160a01b0381166107325760405162461bcd60e51b815260206004820152602660248201527f4f776e61626c653a206e6577206f776e657220697320746865207a65726f206160448201526564647265737360d01b60648201526084016104de565b6106c2816107fc565b6001600160a01b0382165f90815260976020526040902061075c8282611207565b50816001600160a01b03167f0728b43b8c8244bf835bc60bb800c6834d28d6b696427683617f8d4b0878054b826040516107969190611025565b60405180910390a25050565b6033546001600160a01b031633146104465760405162461bcd60e51b815260206004820181905260248201527f4f776e61626c653a2063616c6c6572206973206e6f7420746865206f776e657260448201526064016104de565b603380546001600160a01b038381166001600160a01b0319831681179093556040519116919082907f8be0079c531659141344cd1fd0a4f28419497f9722a3daafe3b4186f6b6457e0905f90a35050565b5f54610100900460ff166108735760405162461bcd60e51b81526004016104de906112c1565b61087b610b8b565b610884826107fc565b61043181610a10565b5050505050565b5f5b63ffffffff81168211156109e9575f60405180604001604052807f00000000000000000000000000000000000000000000000000000000000000006001600160a01b0316815260200185858563ffffffff168181106108f7576108f761130c565b905060200201602081019061090c9190611320565b63ffffffff90811690915260405163bd30a0b960e01b815282516001600160a01b0390811660048301526020840151909216602482015287821660448201529192507f0000000000000000000000000000000000000000000000000000000000000000169063bd30a0b990606401602060405180830381865afa158015610995573d5f5f3e3d5ffd5b505050506040513d601f19601f820116820180604052508101906109b99190611339565b6109d65760405163815589fb60e01b815260040160405180910390fd5b50806109e18161136c565b915050610896565b50505050565b5f6109fc82840184611390565b9050610a08868261073b565b505050505050565b5f81602001515111610a345760405162c10e4560e71b815260040160405180910390fd5b5f5b816020015151811015610b105781602001518181518110610a5957610a5961130c565b602002602001015163ffffffff16825f015163ffffffff1603610a8f576040516311eef66d60e01b815260040160405180910390fd5b801580610aeb57506020820151610aa76001836113c1565b81518110610ab757610ab761130c565b602002602001015163ffffffff1682602001518281518110610adb57610adb61130c565b602002602001015163ffffffff16115b610b0857604051631efe361b60e21b815260040160405180910390fd5b600101610a36565b50805160c9805463ffffffff191663ffffffff9092169190911781556020808301518051849392610b469260ca92910190610be3565b5050815160208301516040517f836f1d33f6d85cfc7b24565d309c6e1486cf56dd3d8267a9651e05b88342ef519350610b809291906113da565b60405180910390a150565b5f54610100900460ff16610bb15760405162461bcd60e51b81526004016104de906112c1565b6104465f54610100900460ff16610bda5760405162461bcd60e51b81526004016104de906112c1565b610446336107fc565b828054828255905f5260205f2090600701600890048101928215610c7f579160200282015f5b83821115610c4d57835183826101000a81548163ffffffff021916908363ffffffff1602179055509260200192600401602081600301049283019260010302610c09565b8015610c7d5782816101000a81549063ffffffff0219169055600401602081600301049283019260010302610c4d565b505b50610c8b929150610c8f565b5090565b5b80821115610c8b575f8155600101610c90565b80356001600160a01b0381168114610cb9575f5ffd5b919050565b5f5f83601f840112610cce575f5ffd5b5081356001600160401b03811115610ce4575f5ffd5b6020830191508360208260051b8501011115610cfe575f5ffd5b9250929050565b5f5f5f5f60608587031215610d18575f5ffd5b610d2185610ca3565b9350610d2f60208601610ca3565b925060408501356001600160401b03811115610d49575f5ffd5b610d5587828801610cbe565b95989497509550505050565b6020808252825163ffffffff1682820152828101516040808401528051606084018190525f929190910190829060808501905b80831015610dbd5763ffffffff8451168252602082019150602084019350600183019250610d94565b5095945050505050565b634e487b7160e01b5f52604160045260245ffd5b604080519081016001600160401b0381118282101715610dfd57610dfd610dc7565b60405290565b604051601f8201601f191681016001600160401b0381118282101715610e2b57610e2b610dc7565b604052919050565b5f82601f830112610e42575f5ffd5b81356001600160401b03811115610e5b57610e5b610dc7565b610e6e601f8201601f1916602001610e03565b818152846020838601011115610e82575f5ffd5b816020850160208301375f918101602001919091529392505050565b5f5f60408385031215610eaf575f5ffd5b610eb883610ca3565b915060208301356001600160401b03811115610ed2575f5ffd5b610ede85828601610e33565b9150509250929050565b803563ffffffff81168114610cb9575f5ffd5b5f60408284031215610f0b575f5ffd5b610f13610ddb565b9050610f1e82610ee8565b815260208201356001600160401b03811115610f38575f5ffd5b8201601f81018413610f48575f5ffd5b80356001600160401b03811115610f6157610f61610dc7565b8060051b610f7160208201610e03565b91825260208184018101929081019087841115610f8c575f5ffd5b6020850194505b83851015610fb557610fa485610ee8565b825260209485019490910190610f93565b6020860152509295945050505050565b5f5f60408385031215610fd6575f5ffd5b610fdf83610ca3565b915060208301356001600160401b03811115610ff9575f5ffd5b610ede85828601610efb565b5f60208284031215611015575f5ffd5b61101e82610ca3565b9392505050565b602081525f82518060208401528060208501604085015e5f604082850101526040601f19601f83011684010191505092915050565b5f5f5f5f5f5f6080878903121561106f575f5ffd5b61107887610ca3565b955061108660208801610ca3565b945060408701356001600160401b038111156110a0575f5ffd5b6110ac89828a01610cbe565b90955093505060608701356001600160401b038111156110ca575f5ffd5b8701601f810189136110da575f5ffd5b80356001600160401b038111156110ef575f5ffd5b896020828401011115611100575f5ffd5b60208201935080925050509295509295509295565b5f60208284031215611125575f5ffd5b81356001600160401b0381111561113a575f5ffd5b61114684828501610efb565b949350505050565b602080825281018290525f8360408301825b85811015610dbd5763ffffffff61117684610ee8565b16825260209283019290910190600101611160565b600181811c9082168061119f57607f821691505b6020821081036111bd57634e487b7160e01b5f52602260045260245ffd5b50919050565b601f82111561055757805f5260205f20601f840160051c810160208510156111e85750805b601f840160051c820191505b8181101561088d575f81556001016111f4565b81516001600160401b0381111561122057611220610dc7565b6112348161122e845461118b565b846111c3565b6020601f821160018114611266575f831561124f5750848201515b5f19600385901b1c1916600184901b17845561088d565b5f84815260208120601f198516915b828110156112955787850151825560209485019460019092019101611275565b50848210156112b257868401515f19600387901b60f8161c191681555b50505050600190811b01905550565b6020808252602b908201527f496e697469616c697a61626c653a20636f6e7472616374206973206e6f74206960408201526a6e697469616c697a696e6760a81b606082015260800190565b634e487b7160e01b5f52603260045260245ffd5b5f60208284031215611330575f5ffd5b61101e82610ee8565b5f60208284031215611349575f5ffd5b8151801515811461101e575f5ffd5b634e487b7160e01b5f52601160045260245ffd5b5f63ffffffff821663ffffffff810361138757611387611358565b60010192915050565b5f602082840312156113a0575f5ffd5b81356001600160401b038111156113b5575f5ffd5b61114684828501610e33565b818103818111156113d4576113d4611358565b92915050565b5f6040820163ffffffff85168352604060208401528084518083526060850191506020860192505f5b8181101561142757835163ffffffff16835260209384019390920191600101611403565b5090969550505050505056fea2646970667358221220d4b7e47c299e2b34648c881fa7bda138c1d1d3ac8d002c9fce526c3a70b3f91f64736f6c634300081b0033","linkReferences":{}},"methodIdentifiers":{"allocationManager()":"ca8aa7c7","avsConfig()":"7e777803","deregisterOperator(address,address,uint32[])":"303ca956","getAVS()":"f62b9a54","getAvsConfig()":"41f548f0","getOperatorSocket(address)":"8481931d","initialize(address,(uint32,uint32[]))":"71aed122","keyRegistrar()":"3ec45c7e","owner()":"8da5cb5b","registerOperator(address,address,uint32[],bytes)":"c63fd502","renounceOwnership()":"715018a6","setAvsConfig((uint32,uint32[]))":"d1f2e81d","supportsAVS(address)":"b5265787","transferOwnership(address)":"f2fde38b","updateSocket(address,string)":"6591666a"},"id":3}